:100000000C9434000C943E000C943E000C943E0082
:100010000C943E000C943E000C943E000C943E0068
:100020000C943E000C943E000C943E000C943E0058
:100030000C943E000C943E000C943E000C943E0048
:100040000C943E000C943E000C943E000C943E0038
:100050000C943E000C943E000C943E000C943E0028
:100060000C943E000C943E0011241FBECFEFD8E04C
:10007000DEBFCDBF0E9440000C9464000C940000D1
:1000800080EF8AB98FE08BB98FE39CE90197F1F794
:1000900000C0000020E091E089B18170992331F027
:1000A000811104C021110DC05C9A292F9FEF30E708
:1000B00042E0915030404040E1F700C00000982FEE
:0C00C000EBCF5C9820E0F2CFF894FFCF6B
:00000001FF
