:100000000C9434000C943E000C943E000C943E0082
:100010000C943E000C943E000C943E000C943E0068
:100020000C943E000C943E000C943E000C943E0058
:100030000C943E000C943E000C943E000C943E0048
:100040000C943E000C943E000C943E000C943E0038
:100050000C943E000C943E000C943E000C943E0028
:100060000C943E000C943E0011241FBECFEFD8E04C
:10007000DEBFCDBF0E9440000C9459000C940000DC
:1000800080EF8AB98FE08BB98FE39CE90197F1F794
:1000900000C0000049990BC08BB18F618BB99FEFF5
:1000A00021EE84E0915020408040E1F7F1CF5C9850
:0600B000F6CFF894FFCF2B
:00000001FF
