:100000000C9434000C9449000C9449000C94490061
:100010000C9449000C9449000C9449000C9449003C
:100020000C9449000C9449000C9449000C9449002C
:100030000C9449000C9449000C9449000C9449001C
:100040000C9449000C9449000C9449000C9449000C
:100050000C9449000C9449000C9449000C944900FC
:100060000C9449000C94490011241FBECFEFD8E036
:10007000DEBFCDBF11E0A0E0B1E0E0EEF0E002C0F5
:1000800005900D92AA30B107D9F70E944B000C944D
:100090006E000C9400008EEF8AB981E08BB980E885
:1000A0008BB921E080E099B19170222361F0911128
:1000B0000AC08F5F8A3009F480E0E82FF0E0E0505A
:1000C000FF4F20812BB92FEF30E742E02150304025
:1000D0004040E1F700C00000292FE5CFF894FFCFA2
:0A00E00080F24860322404F0002092
:00000001FF
