:100000000A128A11FC2F00308A000408840A820731
:1000100000343F3406345B344F3466346D347D3401
:0600200007347F346F3449
:100F0E008312031386198C2F8D2F9E2F8230F100A2
:100F1E00DD30F000F00B912FF10B912F962F8312F5
:100F2E00031386199B2F9C2F9E2F01309F2F00306D
:100F3E000800F1007108013E84000A128A11032094
:100F4E000A128A116D398312031385007108013E4E
:100F5E0084000A128A1103200A128A11F000063048
:100F6E000310F00CFF3E031DB72F700806398900E1
:100F7E0008000730831603139F0007309C000830CB
:100F8E00860085018901811783120313850189016A
:100F9E00F401F20100300A128A11A0270A128A11F6
:100FAE000A128A1187270A128A11F3007303031D8E
:100FBE00E12FE22FF62F7208031DE62FE72FF62FF3
:100FCE000130F4070A307406031DEE2FEF2FF02FB9
:100FDE00F40174080A128A11A0270A128A117308E2
:100FEE00F200D72F0A128A11002883010A128A11E1
:020FFE00C02F02
:02400E00793FF8
:00000001FF
