:100000000C9434000C943E000C943E000C943E0082
:100010000C943E000C943E000C943E000C943E0068
:100020000C943E000C943E000C943E000C943E0058
:100030000C943E000C943E000C943E000C943E0048
:100040000C943E000C943E000C943E000C943E0038
:100050000C943E000C943E000C943E000C943E0028
:100060000C943E000C943E0011241FBECFEFD8E04C
:10007000DEBFCDBF0E9440000C9467000C940000CE
:1000800080E480937C0087E880937A00569A93E01E
:1000900094BD84B5806884BD95BD17BC80917A00FD
:1000A000806480937A0080917A0086FDFCCF8091F5
:1000B000780090917900969587959695879587BD5C
:1000C0008FE39CE90197F1F700C00000E7CFF894B7
:0200D000FFCF60
:00000001FF
