:100000000A128A11F32F00308A000408840A82073A
:1000100000346D3456343A342034203425343434AA
:10002000753400345234413457343A342034253452
:0600300034347534003485
:10053800080001300A128A11CD220A128A11080015
:1005480064008001840A0406031900340406A52AFD
:100558000130831603138500CE309F00813083124B
:1005680003139F002130F000F00BB82A0800213057
:10057800F200F20BBD2A831203131F151F19C52A97
:10058800C62AC22A1E08F100831603131E08F000AB
:100598000800F200831203130613720888008617F6
:1005A8000D30F100FB30F000F00BD82AF10BD82AFF
:1005B800DD2A8312031386130800F2008312031343
:1005C80006177208880086170D30F100FB30F0001E
:1005D800F00BEC2AF10BEC2AF12A83120313861391
:1005E8000800002B7308840000080A128A11E1220F
:1005F8000A128A110130F307730884008313000874
:10060800031D072B082BF62A0800F4007403031DAA
:100618000E2B0F2B172B73087F3E0A128A11CD223F
:100628000A128A111E2B7308BF3E0A128A11CD22A4
:100638000A128A110800831203134508C700312BD8
:100648004308B8004408B9004730BA004608BB0060
:100658000A128A1158270A128A11831203134708AB
:1006680084000A128A1103200A128A11003A031D13
:100678003E2B3F2B242BC301C40108004A308312B0
:100688000313CD004808CE000030CF00D001D101BF
:10069800D701D8014E30C3000030C4004908C50056
:1006A8004D30C6000A128A111F230A128A118312BA
:1006B800031350084807CC004C08840083138001BA
:1006C8000800F401F501701C6A2B6B2B712B720862
:1006D800F4070318F50A7308F50701300310F20D43
:1006E800F30DFF3E031D722B01300310F10CF00CCB
:1006F800FF3E031D792B70087104031D842B852B85
:10070800672B7508F1007408F000080083120313C2
:10071800A601A701A72B2508A300A4012308F00020
:100728002408F1002108F2002208F3000A128A11B5
:10073800BE260A128A11013083120313A607031872
:10074800A70A0030A70726082007A300230884006B
:1007580083130008A5002508031DB32BB42B8F2B8A
:100768000800831603138801061386136230F40009
:100778006530F300F30BBE2BF40BBE2BC32B3830C4
:100788000A128A11CD220A128A110C300A128A1111
:10079800CD220A128A1106300A128A11CD220A12B3
:1007A8008A1101300A128A11CD220A128A110D30DB
:1007B800F400FB30F300F30BDF2BF40BDF2BE42BFF
:1007C8000800700871040319EA2BEB2B182C013070
:1007D800F400F72B01300310F00DF10DFF3E031D5F
:1007E800EF2B0130F407F11FFA2BFB2BEE2B7108CE
:1007F8007302031D012C70087202031C042C052CC3
:100808000B2C7008F2027108031CF303F302013089
:100818000310F10CF00CFF3E031D0C2C0130F40208
:10082800031D172C182CFB2B7308F1007208F0001D
:100838000800F401F501700871040319242C252C13
:100848005A2C0130F600312C01300310F00DF10D57
:10085800FF3E031D292C0130F607F11F342C352CDF
:10086800282C01300310F40DF50DFF3E031D362C26
:1008780071087302031D422C70087202031C452C78
:10088800462C4D2C7008F2027108031CF303F30286
:10089800741401300310F10CF00CFF3E031D4E2CB4
:1008A8000130F602031D592C5A2C352C7508F1001D
:1008B8007408F00008000030FC000030FB00003035
:1008C800FA000030F900701C6A2C6B2C822C74081A
:1008D800F907750803110318013E0319742CFA0768
:1008E800760803110318013E03197B2CFB077708D0
:1008F80003110318013E0319822CFC070130F8008C
:100908000310F40DF50DF60DF70DF80B842C0130DE
:100918000310F30CF20CF10CF00CFF3E031D8C2CB1
:100928007308720471047004031D9B2C9C2C672CA3
:100938007C08F3007B08F2007A08F1007908F000DF
:100948000800FA01FB01760884008313000884007C
:100958000A128A1103200A128A112A3A031DB52C99
:10096800B62CE22C760884000130800777088400D2
:100978000008F80002308007780884000008FA00B0
:10098800840A0008FB00F32C7B08F1007A08F000C9
:100998000A30F2000030F3000A128A1165230A12A5
:1009A8008A1179087007FA000030031801307107BE
:1009B800FB007608840001308313800776088400E2
:1009C800000884000A128A1103200A128A11D03EF4
:1009D800F9000A307902031CF22CF32CC82C7B088E
:1009E800F7007A08F600080083160313241CFD2C70
:1009F800FE2C0B2D831203132A08A0002808A1003F
:100A08002908A2000A128A118A230A128A1183125B
:100A18000313AC1F102D112D132DAB01AC01AD012B
:100A2800AE012D2D2030F0000030F10083120313A9
:100A38002808F2002908F3000A128A11BE260A12B1
:100A48008A11013083120313AD070318AE0A003070
:100A5800AE072E08803AFD002C08803A7D02031D5F
:100A6800372D2B082D02031C3A2D3B2D162D8316EE
:100A780003132418402D412D4E2D831203132A08E9
:100A8800A0002808A1002908A2000A128A118A23B6
:100A98000A128A110800003083120313AB000030D9
:100AA800AA000030A9000030A8002308220421046D
:100AB80020040319602D612DAC2D0130AC006F2D81
:100AC8000130FD000310A00DA10DA20DA30DFD0B1B
:100AD800662D0130AC07A31F722D732D642D0130D4
:100AE800FD000310A80DA90DAA0DAB0DFD0B752D6A
:100AF80023082702031D8A2D22082602031D8A2D9A
:100B080021082502031D8A2D20082402031C8D2D8F
:100B18008E2D9D2D2008A4022108031C210FA5025B
:100B28002208031C220FA6022308031C230FA70276
:100B3800281401300310A30CA20CA10CA00CFF3E3A
:100B4800031D9E2D0130AC02031DAB2DAC2D732D62
:100B58002B08A3002A08A2002908A1002808A00041
:100B68000800013083120313B5008316031321080C
:100B780083120313B400831603132008831203138C
:100B8800B3001F30B6000030B70083160313C4014A
:100B9800032EFF30B6070318B70AFF30B707360829
:100BA800A53E84000A30F0000030F1003208F3005E
:100BB8003108F2000A128A11E5230A128A11700814
:100BC800303E8313800083120313B501FF30B3074F
:100BD8000318B40AFF30B4070A30F0000030F100FF
:100BE8003208F3003108F2000A128A111D240A1291
:100BF8008A11710883120313B2007008B1008312BE
:100C0800360837040319092E0A2E152E3108320426
:100C1800031D0F2E102ECD2D3508031D142E152E55
:100C2800CD2D2F08A8003008A9003608A53EAA0037
:100C38003408AC003308AB000A128A11F8240A12EF
:100C48008A1108000A128A11B5230A128A110A1297
:100C58008A11AC220A128A110A128A119D220A12DA
:100C68008A110A128A11BB220A128A117108831288
:100C78000313EF007008EE000030A3000030A2005C
:100C88000330A100FF30A0006E08F0006F08F100EB
:100C9800F201F3010030F7000030F6001330F500E0
:100CA8008830F4000A128A115F240A128A11730824
:100CB80083120313A7007208A6007108A500700824
:100CC800A4000A128A114F250A128A1183120313EB
:100CD8002108ED002008EC00F301F30A01300A12A4
:100CE8008A1109230A128A115C3083120313C8007F
:100CF8000A30C9006F08CB006E08CA000A128A11B0
:100D080042230A128A115C30F3000A128A11F52272
:100D18000A128A11F301F30A02300A128A1109230E
:100D28000A128A115C3083120313C8000130C9000B
:100D38006D08CB006C08CA000A128A1142230A12F5
:100D48008A115C30F3000A128A11F5220A128A11FC
:100D5800043083120313DB00CF30DA000130D900EE
:100D6800D90BB42EDA0BB42EDB0BB42E352E0A12A7
:100D78008A110028720873040319C32EC42ECA2EC0
:100D880072087304031DC92ECA2ED12E70080A12C8
:100D98008A119C220A128A11572F7208093EF40000
:100DA80073080318013E003EF50074088400831799
:100DB800751C83130008F600840A0008F7007608FB
:100DC80077040319E82EE92E1B2F7208093EF40058
:100DD80073080318013E003EF50074088400831769
:100DE800751C83130008F600840A0008F7007208CF
:100DF800023EF80073080318013E003EF900780827
:100E080084008317791C83130008FA00840A0008F9
:100E1800FB007B08803AFC007708803A7C02031DBF
:100E2800172F76087A0203181A2F1B2F572F7208CC
:100E380084008317731C83130008F400840A0008D5
:100E4800F5007208023EF60073080318013E003EE2
:100E5800F700760884008317771C8313000874074B
:100E6800F9007508F8000318F80A801F3C2FF803EA
:100E78007808FA007908840083177A1C83137008AD
:100E880080007208023EF40073080318013E003E19
:100E9800F500740884008317751C831301308007DC
:100EA800840A0318800A0800831203133A0884008E
:100EB8008313000884000A128A1103200A128A1177
:100EC800253A031D682F692FD92F3A08840001306D
:100ED800800783160313A001A1010030A400FF308E
:100EE800A200FF30A300831203133A08F6003B0860
:100EF800F7000A128A11A5240A128A1177088316A4
:100F08000313A1007608A000A11F8B2F8C2F922F0E
:100F18002414A009A109A00A0319A10A8312031322
:100F28003A08840083130008C200420884000A12A9
:100F38008A1103200A128A11753A031DA42FA52FBE
:100F4800D12F3B0884000008BC00023080073C0811
:100F580084000008BE00840A0008BF003A08840024
:100F68004208013E8000C62F3808AF003908B0009B
:100F78003F08B2003E08B1000A128A11B5250A12CC
:100F88008A11F22F420884000A128A1103200A12D9
:100F98008A11753A0319B82FD12F831203133A080F
:100FA8008400013083138007F22F3A088400000878
:100FB80084000A128A1103200A128A11BC00BD019A
:100FC8003C08F0003D08F1003808F2003908F30049
:100FD8000A128A11BE260A128A11D12F0800831319
:100FE800A0308400C5300A128A11A4220A128A117C
:080FF80083010A128A11262E62
:02400E00793FF8
:00000001FF
